:0F01B2001201151200037FE87E0312017580F41D
:030023000201C116
:0C01C10030980885990E750F01C2983225
:10000300E4FFE50F6010AD0EE41200CAE4FF120036
:0B001300998F0DE4F50FAF0D0201D92D
:10017500EF1FAC0670011E4C600A7D027CEFDCFEB1
:04018500DDFC80EC31
:010189002253
:10018A00EF1FAA0670011E4A6009007D021DED607C
:03019A00EF80FAF9
:01019D00223F
:10013000D2A1D2A07F017E0012018AC2A07F017EDF
:070140000012018AC2A12296
:10019E00D2A1C2A07F017E0012018AD2A07F017E71
:0401AE000002018AC0
:10014700C2A1C2A07F017E0012018AD2A17F017ED7
:070157000012018AC2A1227F
:10015E00C2A1D2A07F017E0012018AD2A17F017EB0
:07016E000012018AC2A12268
:1000F300E4F50AD2A17F01FE12018A30A00F050A9E
:10010300E50AD3946440F412019E7F0122C2A17FC9
:0101130000EB
:0101140022C8
:020062008F0A03
:10006400C2A1E4F50BE50A5480F50A6004D2A0802D
:1000740002C2A0E50A25E0F50AD2A17F017E0012A2
:10008400018AC2A17F017E0012018A050BE50BC320
:04009400940840D1BB
:010098002245
:020026008F0A3F
:10002800E4F50CF50BC2A17F017E0012018AD2A172
:100038007F017E0012018AE50C25E0F50C30A00254
:10004800050C050BE50BC3940840DAE50A700512A8
:09005800015E8003120147AF0CA8
:01006100227C
:1001150043878075985053890F438920758BF375F4
:0B0125008DF3C2ABD28ED2AFD2AC2261
:0801D9008F993099FDC29922B3
:1000CA008F088D091201307FA01200621200F3AF6F
:1000DA00081200621200F3AF091200621200F31252
:0900EA00019E7F0A7E00020175EF
:020099008F08CE
:10009B00E4F5091201307FA01200621200F3AF08E1
:1000AB001200621200F31201307FA11200621200E3
:0E00BB00F3E4FFFE1200268F0912019EAF092A
:0100C9002214
:030000000201CD2D
:0C01CD00787FE4F6D8FD75810F0201B2C6
:00000001FF
