:100080001200B87E007FCFE4FD1200557E007FDFB6
:0E0090007D01120055E4F50D784FE6F5812252
:0D00EF00007F087E9A7D7ADDFEDEFCDFFAE0
:0100FC0022E1
:10009E00744F250DF8A681050DE50DB40203E4F5A8
:0A00AE000D744F250DF8E6F58122D0
:1000CF00C290E50C6005B290E4F50C12009E80F230
:1000DF00C297E50E6005B297E4F50E12009E80F20E
:10005500AB07AA06AF02EDC43354E02410F8A60797
:10006500AF03EDC43354E0240FF8A607EDC43354B1
:0B007500E02410FF744F2DF8A60722B6
:1000B8005389F0438901758A18758CFCC28DD28CDE
:0700C800D2A9D2AFC2B92298
:03000B0002000EE2
:10000E00C0E0C0D0758A18758CFC0509E509700230
:10001E000508050BE50B7002050AC3E50994F4E526
:10002E000894014009750C01750800750900C3E5B7
:10003E000B94E8E50A94034009750E01750A0075E4
:07004E000B00D0D0D0E0321E
:030000000200FDFE
:0C00FD00787FE4F6D8FD75815002008089
:00000001FF
